S01500004954495F4156525F5461736B312E73726563BE
S11300000C942A000C9434000C9434000C943400A6
S11300100C9434000C9434000C9434000C9434008C
S11300200C9434000C9434000C9434000C9434007C
S11300300C9434000C9434000C9434000C9434006C
S11300400C9434000C9434000C9434000C9434005C
S11300500C94340011241FBECFE5D8E0DEBFCDBF21
S11300600E9436000C94EE010C940000CF93DF93B1
S11300701F92CDB7DEB76FEF80E00E946D0143E0C1
S113008063E083E00E94770060E080E00E948D01DD
S1130090AE014F5F5F4F63E083E00E94A701898157
S11300A08130D9F410C0602F80E00E948D012FEFC1
S11300B084E39CE0215080409040E1F700C00000C0
S11300C00F5F1F4F02C000E010E00F3F110559F30E
S11300D050F360E080E00E948D012FEF80E792E012
S11300E0215080409040E1F700C00000D1CF88301B
S11300F008F0E3C0643008F0E2C0433008F0E1C027
S11301008130E9F138F0823009F46EC0833009F4AB
S1130110A0C0D9C041110CC02AB381E090E002C054
S1130120880F991F6A95E2F7822B8ABB80E00895B5
S1130130413089F42AB381E090E002C0880F991F0E
S11301406A95E2F7982F909592239ABB9BB3892BDB
S11301508BBB80E00895423009F0B7C02AB381E038
S113016090E002C0880F991F6A95E2F78095922F5C
S113017098239ABB9BB389238BBB80E008954111DC
S11301800CC027B381E090E002C0880F991F6A95E4
S1130190E2F7822B87BB80E00895413089F427B3CE
S11301A081E090E002C0880F991F6A95E2F7982FCA
S11301B09095922397BB98B3892B88BB80E00895D0
S11301C0423009F084C027B381E090E002C0880F78
S11301D0991F6A95E2F78095922F982397BB98B35D
S11301E0892388BB80E0089541110CC024B381E0C9
S11301F090E002C0880F991F6A95E2F7822B84BBB6
S113020080E00895413089F424B381E090E002C095
S1130210880F991F6A95E2F7982F9095922394BBC3
S113022095B3892B85BB80E00895423009F051C015
S113023024B381E090E002C0880F991F6A95E2F729
S11302408095922F982394BB95B3892385BB80E036
S1130250089541110CC021B381E090E002C0880FE1
S1130260991F6A95E2F7822B81BB80E008954130A3
S113027089F421B381E090E002C0880F991F6A9548
S1130280E2F7982F9095922391BB92B3892B82BB6E
S113029080E008954230F9F421B381E090E002C097
S11302A0880F991F6A95E2F78095922F982391BB46
S11302B092B3892382BB80E0089582E0089583E0AD
S11302C0089581E0089580E0089580E0089580E035
S11302D0089580E0089580E008958430C0F49FEF8D
S11302E0960F9E3FB0F0813049F028F0823049F0FB
S11302F0833051F010C06ABB80E0089567BB80E092
S1130300089564BB80E0089561BB80E0089583E0B4
S1130310089581E0089580E008958430A0F4813048
S113032049F028F0823049F0833051F00EC06BBBA5
S113033080E0089568BB80E0089565BB80E008957F
S113034062BB80E0089582E0089580E008958830DB
S1130350E8F56430E8F541155105E1F1813091F09B
S113036028F08230D9F0833029F136C089B390E087
S113037002C0959587956A95E2F78170FA018083AA
S113038080E0089586B390E002C0959587956A95BC
S1130390E2F78170FA01808380E0089583B390E0EE
S11303A002C0959587956A95E2F78170FA0180837A
S11303B080E0089580B390E002C0959587956A9592
S11303C0E2F78170FA01808380E0089582E0089565
S11303D083E0089584E0089580E00895F894FFCFC1
S9030000FC
