S01500004954495F4156525F5461736B322E73726563BD
S11300000C942A000C9434000C9434000C943400A6
S11300100C9434000C9434000C9434000C9434008C
S11300200C9434000C9434000C9434000C9434007C
S11300300C9434000C9434000C9434000C9434006C
S11300400C9434000C9434000C9434000C9434005C
S11300500C94340011241FBECFE5D8E0DEBFCDBF21
S11300600E9436000C9430020C940000CF93DF936E
S11300701F92CDB7DEB740E060E081E00E945C00F3
S113008043E061E081E00E945C00AE014F5F5F4F9E
S113009061E081E00E94E9018981813029F441E035
S11300A060E00E945201F1CF8111EFCF40E060E0A7
S11300B081E00E945201E9CF883008F0E3C0643047
S11300C008F0E2C0433008F0E1C08130E9F138F0D3
S11300D0823009F46EC0833009F4A0C0D9C0411144
S11300E00CC02AB381E090E002C0880F991F6A9582
S11300F0E2F7822B8ABB80E00895413089F42AB369
S113010081E090E002C0880F991F6A95E2F7982F6A
S1130110909592239ABB9BB3892B8BBB80E0089567
S1130120423009F0B7C02AB381E090E002C0880FE2
S1130130991F6A95E2F78095922F98239ABB9BB3F7
S113014089238BBB80E0089541110CC027B381E063
S113015090E002C0880F991F6A95E2F7822B87BB53
S113016080E00895413089F427B381E090E002C033
S1130170880F991F6A95E2F7982F9095922397BB61
S113018098B3892B88BB80E00895423009F084C07D
S113019027B381E090E002C0880F991F6A95E2F7C7
S11301A08095922F982397BB98B3892388BB80E0CE
S11301B0089541110CC024B381E090E002C0880F7F
S11301C0991F6A95E2F7822B84BB80E00895413041
S11301D089F424B381E090E002C0880F991F6A95E6
S11301E0E2F7982F9095922394BB95B3892B85BB06
S11301F080E00895423009F051C024B381E090E0DA
S113020002C0880F991F6A95E2F78095922F982370
S113021094BB95B3892385BB80E0089541110CC03C
S113022021B381E090E002C0880F991F6A95E2F73C
S1130230822B81BB80E00895413089F421B381E0B1
S113024090E002C0880F991F6A95E2F7982F909565
S1130250922391BB92B3892B82BB80E008954230F4
S1130260F9F421B381E090E002C0880F991F6A95E8
S1130270E2F78095922F982391BB92B3892382BB96
S113028080E0089582E0089583E0089581E0089570
S113029080E0089580E0089580E0089580E0089566
S11302A080E00895883008F084C0643008F083C08A
S11302B0423008F082C0813029F138F0823009F4EC
S11302C03EC0833009F458C07AC0413061F42BB386
S11302D081E090E002C0880F991F6A95E2F7822BB3
S11302E08BBB80E0089541116CC02BB381E090E09A
S11302F002C0880F991F6A95E2F7809582238BBB11
S113030080E00895413061F428B381E090E002C0B8
S1130310880F991F6A95E2F7822B88BB80E00895C5
S1130320411151C028B381E090E002C0880F991FA9
S11303306A95E2F78095822388BB80E00895413076
S113034061F425B381E090E002C0880F991F6A959B
S1130350E2F7822B85BB80E00895411136C025B3B6
S113036081E090E002C0880F991F6A95E2F78095BA
S1130370822385BB80E00895413061F422B381E09B
S113038090E002C0880F991F6A95E2F7822B82BB26
S113039080E0089541111BC022B381E090E002C0C7
S11303A0880F991F6A95E2F78095822382BB80E0CB
S11303B0089582E0089583E0089581E0089580E03F
S11303C0089580E0089580E0089580E0089580E035
S11303D008958830E8F56430E8F541155105E1F1F8
S11303E0813091F028F08230D9F0833029F136C081
S11303F089B390E002C0959587956A95E2F781707C
S1130400FA01808380E0089586B390E002C0959558
S113041087956A95E2F78170FA01808380E00895F8
S113042083B390E002C0959587956A95E2F7817051
S1130430FA01808380E0089580B390E002C095952E
S113044087956A95E2F78170FA01808380E00895C8
S113045082E0089583E0089584E0089580E008959B
S1070460F894FFCF3A
S9030000FC
